{
  "contractName": "AccessPrivateData",
  "abi": [
    {
      "inputs": [
        {
          "internalType": "string",
          "name": "_userName",
          "type": "string"
        },
        {
          "internalType": "bytes",
          "name": "_password",
          "type": "bytes"
        }
      ],
      "name": "addUser",
      "outputs": [],
      "stateMutability": "nonpayable",
      "type": "function"
    },
    {
      "inputs": [],
      "name": "addSomeUser",
      "outputs": [],
      "stateMutability": "nonpayable",
      "type": "function"
    }
  ],
  "bytecode": "0x608060405234801561001057600080fd5b50610773806100206000396000f3fe608060405234801561001057600080fd5b50600436106100365760003560e01c80635900b93b1461003b578063b865028c14610045575b600080fd5b610043610061565b005b61005f600480360381019061005a9190610537565b610177565b005b6100bd6040518060400160405280600581526020017f4a616d65730000000000000000000000000000000000000000000000000000008152506040516020016100a990610606565b604051602081830303815290604052610177565b6101196040518060400160405280600481526020017f4d6172790000000000000000000000000000000000000000000000000000000081525060405160200161010590610667565b604051602081830303815290604052610177565b6101756040518060400160405280600681526020017f526f626572740000000000000000000000000000000000000000000000000000815250604051602001610161906106c8565b604051602081830303815290604052610177565b565b426001600080805490508152602001908152602001600020819055506000604051806040016040528084815260200183815250908060018154018082558091505060019003906000526020600020906002020160009091909190915060008201518160000190805190602001906101ef929190610213565b50602082015181600101908051906020019061020c929190610299565b5050505050565b82805461021f9061070c565b90600052602060002090601f0160209004810192826102415760008555610288565b82601f1061025a57805160ff1916838001178555610288565b82800160010185558215610288579182015b8281111561028757825182559160200191906001019061026c565b5b509050610295919061031f565b5090565b8280546102a59061070c565b90600052602060002090601f0160209004810192826102c7576000855561030e565b82601f106102e057805160ff191683800117855561030e565b8280016001018555821561030e579182015b8281111561030d5782518255916020019190600101906102f2565b5b50905061031b919061031f565b5090565b5b80821115610338576000816000905550600101610320565b5090565b6000604051905090565b600080fd5b600080fd5b600080fd5b600080fd5b6000601f19601f8301169050919050565b7f4e487b7100000000000000000000000000000000000000000000000000000000600052604160045260246000fd5b6103a38261035a565b810181811067ffffffffffffffff821117156103c2576103c161036b565b5b80604052505050565b60006103d561033c565b90506103e1828261039a565b919050565b600067ffffffffffffffff8211156104015761040061036b565b5b61040a8261035a565b9050602081019050919050565b82818337600083830152505050565b6000610439610434846103e6565b6103cb565b90508281526020810184848401111561045557610454610355565b5b610460848285610417565b509392505050565b600082601f83011261047d5761047c610350565b5b813561048d848260208601610426565b91505092915050565b600067ffffffffffffffff8211156104b1576104b061036b565b5b6104ba8261035a565b9050602081019050919050565b60006104da6104d584610496565b6103cb565b9050828152602081018484840111156104f6576104f5610355565b5b610501848285610417565b509392505050565b600082601f83011261051e5761051d610350565b5b813561052e8482602086016104c7565b91505092915050565b6000806040838503121561054e5761054d610346565b5b600083013567ffffffffffffffff81111561056c5761056b61034b565b5b61057885828601610468565b925050602083013567ffffffffffffffff8111156105995761059861034b565b5b6105a585828601610509565b9150509250929050565b600081905092915050565b7f4a616d6573323030310000000000000000000000000000000000000000000000600082015250565b60006105f06009836105af565b91506105fb826105ba565b600982019050919050565b6000610611826105e3565b9150819050919050565b7f4d61727931393935000000000000000000000000000000000000000000000000600082015250565b60006106516008836105af565b915061065c8261061b565b600882019050919050565b600061067282610644565b9150819050919050565b7f526f623230303500000000000000000000000000000000000000000000000000600082015250565b60006106b26007836105af565b91506106bd8261067c565b600782019050919050565b60006106d3826106a5565b9150819050919050565b7f4e487b7100000000000000000000000000000000000000000000000000000000600052602260045260246000fd5b6000600282049050600182168061072457607f821691505b602082108103610737576107366106dd565b5b5091905056fea2646970667358221220be0ade15508f17588be48807bdedd44283dfbe410a7683ff48d3ba19e321e35b64736f6c634300080d0033",
  "immutableReferences": {},
  "source": "// SPDX-License-Identifier: MIT\r\npragma solidity >=0.4.22 <0.9.0;\r\n\r\ncontract AccessPrivateData{\r\n\r\n    struct User{\r\n        string userName ;\r\n        bytes password ;\r\n    }\r\n\r\n    User[] private users ;                   // by default this variable is private .\r\n\r\n    mapping(uint => uint ) userJoined ;      // by default this variable is private .\r\n\r\n    function addUser(string memory _userName , bytes memory _password) public {\r\n        userJoined[users.length] = block.timestamp ;\r\n        users.push(User(_userName , _password)) ;\r\n    }\r\n\r\n    function addSomeUser() public {\r\n        addUser(\"James\",abi.encodePacked(\"James2001\"));\r\n        addUser(\"Mary\",abi.encodePacked(\"Mary1995\"));\r\n        addUser(\"Robert\",abi.encodePacked(\"Rob2005\"));\r\n    }\r\n\r\n}",
  "sourcePath": "C:\\Users\\HP\\Documents\\DApp\\Security and Hack\\AccessPrivateData\\contracts\\AccessPrivateData.sol",
  "compiler": {
    "name": "solc",
    "version": "0.8.13+commit.abaa5c0e.Emscripten.clang"
  },
  "schemaVersion": "3.4.6",
  "updatedAt": "2022-09-18T05:12:15.517Z",
  "networkType": "ethereum",
  "devdoc": {
    "kind": "dev",
    "methods": {},
    "version": 1
  },
  "userdoc": {
    "kind": "user",
    "methods": {},
    "version": 1
  }
}